:020000041008E2
:4000000000780408EB0208100D00000051030810510308105103081051030810000000000000000000000000000000004D0308104D030810000000004D0308104D030810DA
:400040004D0308104D0308104D0308104D0308104D0308104D0308104D0308104D0308104D0308104D0308104D0308104D0308104D0308104D0308104D0308104D03081000
:400080004D0308104D0308104D0308104D0308104D0308104D0308104D0308104D0308104D0308104D0308104D0308104D0308104D0308104D0308104D0308104D030810C0
:4000C0004D0308104D0308104D0308104D0308104D0308104D0308104D0308104D0308104D0308104D0308104D0308104D0308104D0308104D0308104D0308104D03081080
:400100004D0308104D0308104D0308104D0308104D0308104D0308104D0308104D0308104D0308104D0308104D0308104D0308104D0308104D0308104D0308104D0308103F
:400140004D0308104D0308104D0308104D0308104D0308104D0308104D0308104D0308104D0308104D0308104D0308104D0308104D0308104D0308104D0308104D030810FF
:400180004D0308104D0308104D0308104D0308104D0308104D0308104D0308104D0308104D0308104D0308104D0308104D0308104D0308104D0308104D0308104D030810BF
:4001C0004D0308104D0308104D0308104D0308104D0308104D0308104D0308104D0308104D0308104D0308104D0308104D0308104D0308104D0308104D0308104D0308107F
:400200004D0308104D0308104D0308104D0308104D0308104D0308104D0308104D0308104D0308104D0308104D0308104D0308104D0308104D0308104D0308104D0308103E
:400240004D0308104D0308104D0308104D0308104D0308104D0308104D0308104D0308104D0308104D0308104D0308104D0308104D0308104D0308104D0308104D030810FE
:400280004D0308104D0308104D03081010B5054C237833B9044B13B10448AFF300800123237010BD8449020800000000E4750810084B10B51BB108490848AFF30080084825
:4002C000036803B910BD074B002BFBD0BDE81040184700BF0000000088490208E475081054430208000000007047FFF7FDFF72B6104C114DAC4209DA21686268A368043BC9
:40030000A2BFC858D050FAE70C34F3E70B490C4A00209142BCBF41F8040BFAE709480A490860BFF34F8F00F00BFE00F0E5FD00F057FCFEE7E8750810007608108449020877
:40034000444C02080040020808ED00E0FEE7FEE700B504207146084202D0EFF3098001E0EFF30880043002F0E9FEFEE7064B5A6980225A615B694FF48052044BC3F88021B1
:400380000122034B1A7070470006324000E100E0A04902082022014B9A607047800432402022014B5A607047800432404022014B9A607047800432404022014B5A607047C1
:4003C00080043240B42800D9B4204FF4E86303FB00F08008034BA3FB0030800800F50870704700BF176CC11608B5FFF7EBFF024BC3F84C0208BD00BF00003840054B042234
:400400009A6002229A6001229A604022A3F520739A6070470005324010B50446FFF7EEFF032C12D8DFE804F002060A0E0422074B5A6010BD0222054B5A6010BD0122034B81
:400440005A6010BD4022024B5A6010BD0005324080023240032817D8DFE800F002070C110A4B1869C0F380107047084B1869C0F340107047054B1869C0F300107047034B66
:400480001869C0F3C0007047012070470005324001220C4B5A700C4B5A6940225A615A695A6920225A615A695A6910225A615A695A6908225A615B694FF48062034BC3F874
:4004C00080217047A04902080005324000E100E0244B04225A6002225A6001225A604021214A516021490A6892F87C00C25822F4405242F40052C2500A6892F87C00C25822
:4005000022F4406242F40062C2500A6892F87C00C25822F4407242F40072C2500A6892F87C10CA5822F0C00242F08002CA509A6942F040029A619A6942F020029A619A6932
:4005400042F010029A619A6942F008029A610022074B5A70074B4FF48062C3F880211A60704700BF00053240800232403C4C0208A049020800E100E008B54FF480620D4B16
:40058000C3F88020BFF34F8FBFF36F8F0A4B9A6922F040029A619A6922F020029A619A6922F010029A619A6922F008029A61FFF725FF08BD00E100E00005324008B50D4B5F
:4005C0001B6893F87C100C4A8B5823F4404343F400438B50936943F0800393610749084802F03EFD074B4FF48052C3F880211A6008BD00BF3C4C0208000632406D03081073
:40060000786B081000E100E0F8B505460F46164600240BE0FFF7BEFE384602F05BFDFFF7BFFE304602F056FD0134E4B2AC42F1D3F8BD00BFF8B505460F46164600240BE0B5
:40064000FFF7B4FE384602F045FDFFF7B5FE304602F040FD0134E4B2AC42F1D3F8BD00BF38B5002519E02846FFF7D6FE0A2002F049FD00240DE02046FFF7ECFE38B9FFF7FE
:40068000BDFE094B03EB85052C44207A38BD0134E4B2032CEFD90135EDB2032DE3D9FFF7ADFE002038BD00BF786B081008B5FFF7D7FF0246294B9B78032B41D8DFE803F068
:4006C000020B283000283FD0244BD87001221A719A70002008BD214BD87882420CD11A461B790133DBB21371032B2FD9134600221A7102229A7008BD184BDA700AB10121BB
:4007000000E00021154B197112BB0020987008BD00BB124B01221A7103229A70002008BD50B90E4A13790133DBB21371032B13D900201071907008BD0020084B187108BDC7
:400740000020064B987008BD002008BD002008BD002008BD002008BD002008BDA049020808B5FFF7A3FF08BD10B544F6206404E0012002F0C7FC013C08D00649064801F0D5
:4007800097FE10F4803FF3D1002010BD4FF0FF3010BD00BFB84B02080000674008B50B4B1872597203F108021A6102225A6100221A76074A03F10C01064801F033FFFFF757
:4007C000D3FF10B1044804F029F808BDA0490208B84B020800006740986B081008B507212020FFF7DBFF08BD08B557212020FFF7D5FF88212320FFF7D1FF462002F06AFC15
:4008000008BD00BFF8B5104C234603F8080F23610123636123760D4F04F10C060C4D3A463146284601F0FEFEFFF79EFF04F11C032361002323763A463146284601F03AFE28
:40084000FFF792FF207FF8BDA0490208B84B02080000674008B52D20FFF7C6FDFFF7ACFDFFF79EFD0022034B9A770349034801F04FF808BDA0490208CC6B08100000664006
:4008800008B58720FFF7B0FDFFF790FDFFF788FD0122034B9A770349034801F039F808BDA0490208DC6B081000006640F8B5194D1949284601F02CF82D20FFF795FD4FF42B
:4008C000FA7002F007FCFFF789FF144C1449204601F0B2FCFFF7FCFD124E10277760002002F062FDB760FFF747FE236843F00043236019220C4B1A73FFF776FF2D20FFF7E8
:4009000073FDC82002F0E6FB0849284601F000F8F8BD00BF00006640F06B081000006740B84B020880043240A04902081C6C081030B585B0FFF72EFD3249334800F0E8FF12
:400940000024254602E0002400E0002442F20F739C420CD92D492C4800F0DAFF642211460320FFF751FEFFF71BFD002047E0FFF79DFE20B9052002F0ADFB0534E6E723289E
:400980000ED104AB1D44002305F8103C20491E4800F0BEFF1F49684603F0F2FF18BB1AE02A2809D1002DCED0013DEDB21A49164800F0AEFF0024C9E70E2DC6D86C1CE4B29C
:4009C00004AA154405F8100C2A210F4800F05AFF25460024BAE7FFF7E3FC10490A4800F097FF01200BE0C82211460220FFF70CFEFFF7D6FC0A49044800F08AFF002005B092
:400A000030BD00BF306C081000006640506C0810F06D08107C6C0810846C0810886C0810986C08102DE9F8432DED028BFFF7BEFC6149624800F06CFF0026374635469FED36
:400A4000608A2920FFF7DEFE000204B22820FFF7D9FE00B204432B20FFF7D4FE00020FFA80F82A20FFF7CEFE00B248EA00082D20FFF7C8FE00020FFA80F92C20FFF7C2FE8E
:400A800000B249EA0003221107EE902AF8EEE77A9FED4C5A67EE857ADFED4B5A67EEA57A4FEA281207EE102AB8EEC77A27EE057A27EE257A1B1106EE903AB8EEE66A66EEB5
:400AC000056A66EEA56A67EEA77A27EE077A37EE877A66EEA66A77EE267AB1EEE77AB4EE477AF1EE10FA05D017EE900A05F07CFF07EE100A17EE104AF2EE047AB4EEE77A8A
:400B0000F1EE10FA28DDB4EEE78AF1EE10FA23D8E91BC82920D92EB92C4803F07FFE2F46012619E0BEB1A1F5FA73B3F57A7F06D8274803F001FEFFF73FFC012038E0254859
:400B400003F0FAFDC82211460220FFF773FDFFF733FC00202CE02F468EB1EA1B40F2DC539A420CD91C49154800F0D2FEC82211460220FFF75FFDFFF71FFC002018E086B9F7
:400B800042F210739D420CD914490C4800F0C0FEC82211460220FFF74DFDFFF70DFC002006E06435642002F095FA08EE104A48E7BDEC028BBDE8F883AC6C0810000066406A
:400BC000000000006F12833AC3F51C41C86C0810006D0810306D0810646D0810906D081010B54E4B10225A6040225A6020245C6062B600F023FA4A4B1868002302221946D8
:400C0000406803F013FE00F0D3F91922454B1A7357212046FFF7C2FD88212320FFF7BEFD0F20FFF7EFFD332804D03F493F4800F06FFEFEE73D4C3E49204600F069FE02F074
:400C40001FFD2D20FFF7D0FB0022364B9A773949394802F005FAFFF7B1FC3849204600F057FE304B1B7813F0FF0F14D02D4B00221A709B7F13F0FF0F06D031492B4800F0CE
:400C800047FEFFF7E7FDECE72E49284800F040FEFFF7F6FDE5E7234B9B7F13F0FF0F0DD0FFF75EFD2A2805D12749204800F030FEFFF7D0FD052002F00DFAD2E7FFF7F6FD10
:400CC000184B1B7813F0FF0F09D00022154B1A701C49164800F01CFEFFF7D2FDC1E7FFF727FE20B94FF47A7002F0F4F9B9E717490E4800F00DFEFFF795FE40B914490B484B
:400D000000F006FE4FF4FA6002F0E4F9A9E71149064800F0FDFDFFF7B3FDA2E7800432400C430208A0490208B46D081000006640E06D081091040810906B0810F46D081043
:400D4000106E0810306E0810506E08106C6E0810986E0810C46E081008B5012000F052FD08BD00BF704700BF5C4AD2F8803303F00F0303F1D00152F8212002F00702032A40
:400D800004D0042A05D092B9554914E0554A116811E003F1C002514951F8222002F01F02112A06D0132A04D04FF4FA4103E04E4901E04FF400418BBB484BD3F8902502F0BE
:400DC0000100D3F88825C2F30172D3F8883513F0405F07D0414BD3F88835C3F30173012B02D102E0012300E0002303B108B9032A46D13A48D0F88025C2F31103D0F8842529
:400E0000C2F30C02D0F88005C0F300600130B1FBF2F202FB03F2B2FBF0F131E0012B2FD12E4BD3F8402602F00100D3F80026C2F30172D3F8003613F0405F07D0274BD3F8A4
:400E40000036C3F30173012B02D102E0012300E0002303B108B9032A12D12048D0F8002602F07F02D0F80036C3F30423D0F80006C0F3044002FB01F2B2FBF3F2B2FBF0F10C
:400E8000164BD3F88033C3F3011321FA03F215494A601648D0F89030C3F3072301330069000E0130B2FBF0F08860B2FBF3F3CB600B6103F5742202F23F220D48A0FB020259
:400EC000C2F387420A7503F2E7330A4AA2FB03239B098B61DB03CB61704700BF0000264000127A008C42020800366E010000214083DE1B43D34D621008B50D4802F0DCFAC4
:400F0000FFF730FFFFF730FF00221146042000F041FA084800F0D4FA074B1B6893F8513013B1064800F03CFB00F07EF908BD00BFFC720810C04902083C4C0208E46E0810F7
:400F400008B502F056F9074AD2F8883043F47003C2F88830BFF34F8FBFF36F8F02F04DF908BD00BF00ED00E010B504462146034800F088FC0028F9D010BD00BF0000664063
:400F8000054BD3F80833C3F30803002BF8D0024BD3F84003704700BF0000664008B50249024801F0ABFC08BDB84B02080000674010B5144B1B788BB9134C144A14492046D2
:400FC00001F074F8134A1449204601F089F91349134802F045F801220A4B1A70104BB3F90030002B08DB590903F01F03012202FA03F30C4A42F82130034A136843F0004329
:40100000136010BD404B020800006740B84B0208286F081084D71700A08601009D0F0810186F081000E100E008B50249024801F07FFF08BD044C02080000664008B5114B1C
:401040001B785BB9104A1149114801F04DFD1149114802F005F801220A4B1A700E4BB3F90030002B08DB590903F01F03012202FA03F30A4A42F82130054A136843F00043EF
:40108000136008BD414B0208044C02083C6F08100000664029100810206F081000E100E01F4B98422DD00CD840282ED003D8E8B1102828D02FE0802829D0B0F5807F28D06B
:4010C00029E0184B984228D006D8B0F1204F0DD0154B984212D01EE0144B98420AD00133984209D0023B984215D101E0002070470F4870470F4870470F4870474FF4A00011
:401100007047074870470D4870470D4870470D487047034870470C4870474FF4A400704706005200010000F0090000A0040000F001005200020052000300520001005000F0
:401140000200500005005200FF00520038B5124B1B6893F83130012B04D840F2C3110F4801F0DCFF0C4B1D682A6AB5F8B03013442C46D5F8B420D358002B0BDB084B186815
:40118000FFF78EFF6B6801229A6063689B68002BFBD138BD034838BD3C4C02087C6F0810444B0208020050001A4B186128B102230370FF23437000234380174B1B6893F8C8
:4011C00050202AB300B583B0B3F93830ADF80030002301931149684601F042FFBDF90030002B08DB590903F01F03012202FA03F30B4A42F82130084B1B6893F8513023B1CA
:4012000002220849012000F077FA03B05DF804FB704700BF444B02083C4C0208C543020800E100E07D44020808B50248FFF7BCFF08BD00BF584B020838B50B4B1B68D3F8F7
:40124000B4301B58002B0DDA0D4604460B0C1B0423B140F2D521054801F060FFA9B26160002038BD024838BD3C4C0208BC6F081001008A0038B50368002B01DA002300E068
:40128000094B73B90D460446C2600B0C1B0423B140F2BB21054801F041FFA9B2A160002038BD014838BD00BF01008A00BC6F081038B504460D4619B99921084801F02EFF99
:4012C000074B1B68D3F8B4301B59002B03DAE3682B60002038BD034838BD00BFFC6F08103C4C020801008A00254B1B6893F8313083423AD900293AD00B6813F01F0F38D1CD
:4013000070B50D4604461E4B1B6893F83130984204D340F2C3111B4801F000FF184B1B68186AB3F8B03004FB0304174E34602A68D2080021686802F085FD00212046FFF7C9
:401340007BFF346825B940F293310E4801F0E6FE2A4600212046FFF78DFF60B900210A4B1868FFF769FF40B970BD084870470748704706487047064870BD054870BD00BF86
:401380003C4C0208BC6F08105C4B020803018A0001018A0010B504461346B2B9A9B9124B1B6893F83130984204D340F2C3110F4801F0B4FE0C4B1B681A6AB3F8B03004FBF3
:4013C00003240B4B1C60002010BD43B149B1084A51609360111D2046FFF786FF10BD054810BD044810BD00BF3C4C0208BC6F08105C4B020803018A002DE9F0411B4B1B6811
:40140000DC68236883422CD90D464609A0EB4610012303FA00F819B901F0EBFE074600E00027124B18680368002B01DA002300E00F4B83B9626852F8263018EA030F05D03D
:4014400023EA080342F82630002400E0094C0021FFF7F2FE00E0084C25B9384601F0CDFE00E0064C2046BDE8F08100BF5C4B020801008A00020188000301880004018A00C9
:401480000B4B1B68DB681A6882420CD94109A0EB4110012202FA00F05B6853F82130184203D004487047044870470448704700BF5C4B02080101880004018A000001880009
:4014C000024B1B680BB9014B18607047684B02082DE9F8430446884691461D46089F2C4B1B681BB9B5212B4801F018FE284B1B682C2000FB04F01C18EEB21E50C5F3072363
:4015000063602D0CA560244B1B6893F831309E4204D340F2C311214801F000FE1E4B1B68196AB3F8B02006FB02162661666893F832309E4204D340F2DF11184801F0EEFD5D
:40154000154B1B681D6A803605EB46156561A668330C1B0423B14FF4FF71104801F0DEFD330C1B0423B140F2FF110C4801F0D6FDB3B243EA0646AE60C4F81C90C4F82080E7
:401580000023A36117B1B7F90030A381BDE8F883684B02083C7008103C4C0208BC6F0810F0B58FB0044618B95221274801F0B6FDA369072B03D95621234801F0AFFDE36A57
:4015C0001BB95821204801F0A9FD236B1BB959211D4801F0A3FD07AD04F114060FCE0FC537682F6002AD26460FCE0FC533682B60164B1B68B3F93620079B1344ADF8303055
:40160000089B0D93A26AE16A0CAD00953B460A98FFF75EFF00210091069B0A460598FFF757FF216B284601F01BFDBDF93030002B08DB590903F01F03012202FA03F3044ABF
:4016400042F821300FB0F0BD3C7008103C4C020800E100E0F8B506460F461D4614461AB9FD211F4801F05AFD1E4B1B681BB9FE211B4801F053FD1B4B1B682C2101FB0630C6
:4016800001FB07314B68012202FA03F31B04466802FA06F60269EAB18F69EFB91268002A01DA002200E0104AC2B92288134323600369DC6001238B614D620469330C1B04B8
:4016C00023B140F2BB21094801F028FDB2B2A2600020F8BD0648F8BD0648F8BD0548F8BD3C700810684B020801008A00BC6F081004028A0007028A00F8B505460F46164643
:401700000E4B1B6823B94FF4AF710D4801F006FD0A4B1B682C2404FB0534236A23B94FF4B171074801F0FAFCE369B34204D9236A43F826700020F8BD0248F8BD684B0208D4
:401740003C7008100A028A0070B582B000230193044620B940F2D111284801F0DFFC236923B94FF4E971254801F0D8FC636923B940F2D311214801F0D1FC236A23B94FF4C6
:40178000EA711E4801F0CAFC6369DD682A0C20D012041A601B682069194B1B68D3F8B430C358002B15DA01A9FFF782FD60B9019803681E0CDBB2E269934206D2226A52F852
:4017C000233013B1984700E0002631462069FFF733FDADB275B16369ADB21D601B68636A1BB198470023636202E0A36A03B198470023A36163691B6802B070BD3C7008101C
:401800003C4C020810B50446074B1B6823B940F2B111064801F082FC034B1B682C2000FB0430FFF791FF10BD684B02083C70081010B4D0F8003303F00F03072B06D900238D
:401840000DE0D0F84043CC54013300E000239342F7D306E0D0F8404321F8134001339342F8D35DF8044B704710B51446D0F80833C3F308039A4200D31C462246FFF7D8FF45
:40188000204610BD036813F4006F01D0802200E04022D0F80832C3F30803934203D0C0F84012012070470020704700BF10B4D0F8003203F00F03072B06D900230DE0CC5C70
:4018C000C0F84042013300E000239342F7D306E031F81340C0F8404201339342F8D35DF8044B704710B51446036813F4006F01D0802200E04022D0F80832C3F30803D31AA8
:40190000A34200D81C462246FFF7D0FF204610BD30B4036813F4006F01D0802200E04022002408E0D0F80832C3F308039A42F9D0C0F8405201340D5D002DF3D130BC7047BD
:4019400002E0C0F84012013A002AFAD1704700BF10B51446036813F4006F01D0802200E04022D0F80832C3F30803D31AA34200D81C462246FFF7E4FF204610BD10B554685C
:4019800041F201039C4236D1D0F80833C3F30803DBB1137893B1136A43F040031362D0F8043343F48033C0F80433D0F8043323F48033C0F80433D0F8043306E029B9136AB0
:4019C00043F040031362D0F84033136A43F020031362136A23F010031362036E23F4204303660023C0F8C83F0123C0F8C03FD0F8C03F202121E0D0F80832C3F30801D0F8BE
:401A00000832C3F3C0330B44116BC91A5163116A11F0080F05D1D16A1944D162916ACB1A9362136A43F004031362136A23F0010313620023C0F8883F1021D0F84C4F40F2BB
:401A400001131C420DD0036823F00043036000238366C366036843F000430360036841F040014FF080535360536C0BB10846984710BD00BFD0F80C3F13F0020F1DD002226C
:401A8000C0F8002FD0F8002FD0F8002F12F0040F02D04FF4001001E04FF480108A6802438A604A68B2F5B81F07D00A7B12B14FF4C01201E04FF4B0124A6013F4807F03D075
:401AC0008A6842F400028A6013F0010F03D08A6842F480028A6040F21112134202D04FF4C0134B60704700BF0023C0F8C83FC0F8883F836E23B140F21713C0F8083F70476D
:401B000040F21313C0F8083F182383664FF4B8134B60704738B5D0F80C4F036E23F4807303660023C0F8C83FC0F8883FC0F8083F40F21713C0F8003FD0F8003F8B6823F402
:401B400080338B604B7B13B18B69CB610BE08D69D0F80822C2F30802D0F80832C3F3C0331344EB1ACB6140F201131C421BD0036E9B0F032B05D114F4827F14BF0123002387
:401B800000E001235BB1036823F00043036000238366C366036843F00043036003684FF080534B601BE00B7893B1D0F8043343F48033C0F80433D0F8043323F48033C0F835
:401BC0000433D0F804330123C0F8C03FD0F8C03F0B7B0BB10B4B01E04FF080534B604A6C72B14B7B13B14FF4802001E04FF400308B6813F0F87301D04FF400231843904773
:401C000038BD00BF0000101070B505460C4691F8243013F0FF0F0ED1CB6A63B94B6C0BB108209847E36AB3FA83F35B0984F824300123C5F8883F94F8243013F0FF0F16D053
:401C400063783BB12B6813F4006F01D0802202E0402200E00122FF212846FFF779FE236B18442063236A43F00803236270BDE26A012A11D963780BB1013A00E00122A16AB4
:401C80002846FFF72FFE236B03442363E36A1B1AE362A36A1844A062D5F80832C3F30803802B23D0E36A012B20D101F0A2FAA36A1B78C5F840324026C5F8806FD5F8803F3C
:401CC00001F09BFA236B013323630023E362A36A0133A362C5F8886F63783BB1236A43F002032362636C0BB10420984770BD00BF38B54B68B3F5A81F03D14FF4C0134B6085
:401D000038BD4B68B3F5A01F4DD10C4605464A69012A11D94B780BB1013A00E0012221692846FFF7DFFDA3690344A36163691B1A6361236903442361D5F80832C3F308034F
:401D4000802B14D06369012B11D101F052FA23691B78C5F840324023C5F8803FD5F8803F01F04BFAA3690133A361002363616369CBB9237B33B14023C5F8883F4FF4A813EC
:401D8000636005E00023C5F8883F4FF4B0136360637843B1A36843F40033A360636C13B14FF48030984738BD70B504460D468A6C82B3036813F4803F06D0D0F84C3F13F020
:401DC000400F03D0022002E0002000E00020236E13F4006F06D1D4F84C3F13F0800300D001231843C0B190470123C4F8C03FD4F8C03F024648B91023C4F8403FD4F8403F9F
:401E000040F2D113C4F8483F07E040F2C113C4F8483F02E0002200E00022D4F8043243F48033C4F80432D4F8043223F48033C4F80432D4F804320AB9012300E00223E36640
:401E4000002A59D1666E06F010066B6C23B10EB1012000E0022098477EB141F202036B602B6A43F001032B626B6B2B63002385F824300123C4F8883F70BD41F201036B6009
:401E80002B6A43F010032B620123C4F8C83F2B78BBB1EB6BBBB1236E43F400532366ED6B802D05D9A5F18003802B0ED8813D0DE0013D236E43F4004323660023C4F8C83F6E
:401EC00004E0002502E0002500E03F25236813F4006F01D0802300E040239D4204D34FF42371064801F01AF9D4F8043323F0FF03EDB21D43C4F8045370BD00BF7C700810DD
:401F000038B54B68B3F5881F03D0B3F5901F1AD038BD0B69D0F840231A708B6901338B614B69013B4B612BB10B6901330B610423836638BD0B7B13B14FF4C01301E04FF457
:401F4000B0134B6038BD0C4605464A690969FFF78BFCA3690344A36163691B1A6361226910442061012B24D82B6E23F480732B666369012B16D12B6813F4006F01D080238B
:401F800000E0402323B94FF42371184801F0C6F8D5F8043323F0FF03C5F804334FF48813636038BD0023C5F8C83F4FF4B013636038BD402B01D89C1E00E03F242B6813F4F9
:401FC000006F01D0802300E040239C4204D34FF42371064801F0A2F8D5F8043323F0FF02E3B21343C5F8043338BD00BF7C70081038B5CB6B002B50D00B78002B3FD00C462A
:402000000546D0F80423D2B20132896BFFF72CFC236C03442364E36B1B1AE363A26B1044A063802B06D9A3F18002802A0FD8A3F181040DE02B6E43F400432B66E36B0BB12E
:402040005C1E00E000240023C5F8C83F00E03F242B6813F4006F01D0802300E040239C4204D34FF42371104801F058F8D5F8043323F0FF02E3B21343C5F8043338BD0123C3
:40208000C3668A6B0B6CD0F84003D0540B6C01330B64CB6B013BCB6338BD0223C3660023C0F8C83F38BD00BF7C700810F8B50B78012B03D00C7A1CB9002702E0002700E02B
:4020C0000127002800F0A780002900F0A680002A00F0A58016460C460546013BDBB2022B03D950214F4801F019F8637803B163791BB151214B4801F011F894F90330002B05
:4021000003DA5221474801F009F8237913F0010F03D05321434801F001F82369102B03D95421404800F0FAFFE368102B03D955213C4800F0F3FF637913B14FF4803100E028
:402140000021E27912B14FF4807300E000230B4343F400632B60A37913B94FF4006300E000232269013A02F00F021A43E368013B1B01DBB21343227843EA82732B6617B122
:4021800040F2073301E040F20713C5F800330FB1254B00E0254B2B6763780BB17F2300E00023C5F80433E3785B00DBB2227943EA0243C5F810331E4BC5F80032A3780BB1D5
:4021C000402300E00123C5F804320023C5F8C83EC5F8883EC5F8C83FC5F8883FC5F8083F2378022B02D040F2D11300E00023C5F8483F63783370A37873704FF08053736078
:402200000020B060B06130623064F0633063F0627064B064F8BD0748F8BD0648F8BD0548F8BD00BFC070081003002A0013102A00070101000120AA00036823F000430360E0
:402240004FF080534B6000238B600B62704700BF38B505460C4621B94FF43171194800F05DFF2B6E9B0F012B17D1174B2344174A93421ED9A4F5BD13A3F5D66302F56112C9
:4022800002F56162934216D9A4F57104A4F533440F4B9C4211D80F4838BD84B1286EC0F303102B6E03F00F0318440230B4FBF0F038BD094838BD094838BD002038BD002013
:4022C00038BD00BFC070081020AD88FF405B730040555C0440420F00801A0600A08601002DE9F84307468846914622B940F21321624800F013FF08F1FF34614B9C4204D970
:402300004FF405715D4800F009FF3B6E9B0F012B0DD149463846FFF79BFF0546D7F8003323F40073C7F80033564B3B67A2E0544B9C421FD8544B984509D8A9F5BD13A3F5E8
:40234000D663524A934218D90021012328E0504B984507D84F4B4B444F4A934213D9002101231DE04D4B4B444D4A934212D90021012315E00021012312E0002141F2883559
:402380002E460B460CE000214FF461754FF4C8660B4605E001214FF4BE754FF41B760023002B66D13F4BB3FBF9F3B6FBF3F404FB03F2964200D90134102C00D910240F2C80
:4023C0008CBF00220122B5FBF3F606FB03F39D4200D90136102E00D91026A519B9FBF5F50FE022B10F2C09D80134002206E00F2E04D801360F2C8CBF00220122A519B9FB7D
:40240000F5F5454502D9A3191F2BEAD941B1D7F8003343F40073C7F80033234B3B6707E0D7F8003323F40073C7F80033154B3B67E31F092B04D940F28D511C4800F06EFE9A
:402440003B6E23F0F003013C2401E4B223433B66731F0B2B04D940F2AA51144800F05EFE3B6E23F00F03013E06F00F061E433E6600E000252846BDE8F88300BFC07008107D
:402480003F420F0013102A00A0860100502D1900801A060020AD88FFA0432100807E25FFC02BAF0000CA9A3B03002A00007108108868704770B5044615460E4621B940F2A8
:4024C000D441554800F02AFE73680BB1B36823B940F2D541504800F021FE96F90030002B04DA40F2D6414C4800F018FE0023C4F8483F6B6813F0805F00F0888033785B00D1
:40250000DBB243F001034FF48032AA6072682A61B2686A610022AA61EA61327B2A7301226A7340F21712C4F8002FD4F8002FD4F8042242F48032C4F80422D4F8042222F4C7
:402540008032C4F80422D4F804226A68B2F1805F04D1C4F840320223A36609E0626E12F0200F01D0092200E00122A266C4F840322B7843B32B7B33BB6B69012B23D9236E77
:4025800043F4807323666E69802E01D8023E00E03F26236813F4006F01D0802300E040239E4204D34FF423711C4800F0B7FDD4F8043323F0FF03F6B21E43C4F804634FF4B0
:4025C00090136B6015E0236813F4006F01D0802300E0402323B94FF42371104800F09EFDD4F8043323F0FF03C4F804334FF488136B6000F0FEFD0123C4F8C83F40F213134C
:40260000C4F8083F00F0F9FD002000E0044840F2D113C4F8483F70BDC07008107C7008100220AA00F8B5044615460E4621B94FF4B7614B4800F072FDB36833B1736823B944
:4026400040F2B951464800F069FD96F90030002B04DA40F2BA51424800F060FD0023C4F8483F6B6813F0805F73D037787F00FFB24FF48033AB6073682B61B3686B610023AF
:40268000AB61EB61327B2A736B7340F21713C4F8003FD4F8003FD4F8043243F48033C4F80432D4F8043223F48033C4F80432D4F804326B68B3F1805F09D1C4F84072402399
:4026C000C4F8803FD4F8803F0223A36617E0636E13F0200F01D0092300E00123A3666B695BB900F086FDC4F840724023C4F8803FD4F8803F00F081FD01E0C4F840724FF470
:40270000A0136B606B780BB1402500E00125236813F4006F01D0802300E040239D4204D34FF43D710F4800F0F9FCD4F8043223F0FF032B43C4F8043200F05BFD0123C4F8D7
:40274000883F40F21313C4F8083F00F056FD002000E0054840F2D113C4F8483FF8BD00BFC07008107C7008100220AA00F8B504460E46D0F88C3E13F0010F07D04FF48053E5
:402780004B600123C0F8803ED0F8803ED4F84C5F40F201131D420FD0336A15F4807F02D04FF4807200E08022134333620023C4F8C83F45F010050EE015F0100F0BD0D4F851
:4027C0000833C3F3080333B1F36B23B10123C4F8C43FC4F8C83FD4F8CC3F13F0010F17D0236813F4803F07D0062000F08BFCD4F84C7FC7F3801700E0002757B931462046AF
:40280000FFF7F6FB0123C4F8C03FD4F8C03F00E0002715F0100F0BD0324639462046FFF7ADF81023C4F8403FD4F8403FD4F84C5F15F0C00F0DD031462046FFF7B5FA012382
:40284000C4F8803ED4F8803EC023C4F8403FD4F8403FD4F88C3F13F0410F08D031462046FFF7D2F90123C4F8803FD4F8803FF8BD70B506460D46D0F8004E14F0020F0AD0E3
:40288000836E2BB1002383668B6843F080738B604FF4C0136B6014F0010F05D029463046FFF7E8F824F0040414F0080F08D029463046FFF725FB0123C6F8C03FD6F8C03FFE
:4028C00014F0040F08D029463046FFF711FA0123C6F8803FD6F8803F6B68B3F5C01F03D129463046FFF716F96B68B3F5B01F03D129463046FFF7F8F870BD00BF08B54B6878
:4029000013F4801F02D0FFF7B3FF08BDFFF72EFF08BD00BF2DE9F84305460C46036813F4006F02D04FF0800801E04FF04008D5F8007207F00F07A26A012A19D9D4F8249046
:40294000E262561EB9F1000F00D026B940F27351254800F0E3FB324649462846FEF7C2FFA36A1B1AA362072F00D9400048446062D5F80832C3F30803984533D0A36A012B16
:4029800030D10023A362072F02D8636A1E7801E0636A1E8800F02DFCC5F840624FF40073C5F8803FD5F8803F00F027FCD5F8883F23F4007222F0010242F4007623F4EE6398
:4029C00023F0030323B140F23641084800F0A6FBC5F8886F236843F002032360236B0BB101209847BDE8F883407108107C7008102DE9F04105460C46036813F4006F01D099
:402A0000802600E040267608A769D4F81C8017B1B8F1000F04D14FF49961314800F07EFB424639462846FEF71FFF236A03442362E3691B1AE36173BBA368FBB1E3689E428A
:402A400001D8013E00E05E1E2B6813F4006F01D0802300E040239E4204D34FF42371214800F05CFBD5F8043323F0FF03F6B21E43C5F804630123C5F8C83F02E00023C5F8F4
:402A8000C83F636823F001036360236B33B304209847BDE8F081A169D5F8002302F00F02072A00D940000844A0619E4216D95C1E2B6813F4006F01D0802300E040239C4262
:402AC00004D34FF42371074800F028FBD5F8043323F0FF02E3B21343C5F80433BDE8F081407108107C700810002800F0A48170B50546002900F0A18116460C460B78022BA6
:402B000003D93F21A24800F009FB637B023BDBB2062B03D940219E4800F000FBA37B3BB1022B05D0032B03D04121994800F0F6FA94F82130012B03D94221954800F0EEFA67
:402B400094F82830012B03D94321914800F0E6FA2378012B06D86368083B082B94BF0023012307E0A37F2BB16368013B062B94BF002301231BB14521854800F0CFFAA36862
:402B8000053B042B03D94621814800F0C7FA6369FF2B03D947217E4800F0C0FAA369FF2B03D948217A4800F0B9FAA37C6BB1237833B9A368092B05D1A37B2BB1012304E086
:402BC000012302E0012300E000231BB14A21704800F0A4FA636B23F4366323F00D031BB14C216B4800F09AFAE36B23F4EE6323F003031BB14D21664800F090FA2378022B21
:402C000001D1A37F13B16268013A00E00022237F13B14FF4803100E00021A368082B02D84FF4006300E000230B4302F00F02134343F000732B60226B2B6813F4006F01D07A
:402C4000802300E040239A4203D36221504800F065FAA26B2B6813F4006F01D0802300E040239A4203D36321494800F057FA626A2B6813F4006F01D0802300E040239A4215
:402C800003D36421424800F049FA23781B0603F040732B64637F0BB1402200E00022A37C13B14FF4806300E000231343227C12B14FF4807200E000221343627C12B14FF4D5
:402CC000007200E000221A43E36A013B1B0403F470231343627B013A02F007021343A27B120102F030021343AB64237B13B14FF4807200E00022E37B23B92378022B03D1EA
:402D0000012302E0012300E0002313B14FF4007300E000231A43A368013B03F00F031343C5F80033227DA3691B0403F47F031343C5F81033E26AD5F8003303F00F030333DA
:402D40009A4201D3102A03D97A21114800F0E6F9E37F23B12378012B03D0002302E0002300E0012313B14FF4807200E00022637B013B03F007031A43A37B1B0103F03003FF
:402D800013436B64237B2BB14FF4807203E000BF807108100022A368013B03F00F0313432278012A02D14FF4803200E000221343C5F8003294F83030C5F8043394F8203040
:402DC00013B14FF0007200E0002294F82130012B02D14FF0807300E00023134394F82820012A02D14FF4803200E00022134394F8242013432B6594F83830C5F80432636B6B
:402E000023F4926323F002031B051B0DC5F8C83FE36B23F08C035B055B0DC5F8883F76B1002070603060B060F0603062F0623063044B736370BD04487047034870BD0020BB
:402E400070BD00BFEFCDAB000160AA000B694A69934202D34869181A7047CA684869101A184470472DE9F04107460D46036813F4006F02D04FF0800801E04FF040084FEA67
:402E80005808D7F80863C6F308062C6926E00134EB689C4200D100246B699C420FD12B6B0BB1082098476B699C4208D10023C7F8C83F0CB1013C13E0EC68013C10E0D7F81F
:402EC0004023D7F8003303F00F03072B02D8AB681A5502E0AB6823F81420013E002ED6D12C61EC6829463846FFF7B0FF201A804519D908B1441E00E000243B6813F4006FE6
:402F000001D0802300E040239C4204D34FF42371064800F003F9D7F8040320F0FF03E0B21843C7F80403BDE8F08100BF7C70081038B504460D46D0F8003E13F0080F35D0F1
:402F4000D0F8CC3F13F448730AD04A681A434A60C0F8C03FD0F8C03F0B6B0BB110209847D4F8CC3F13F4006F09D06B6843F400636B604FF40063C4F8C03FD4F8C03FD4F814
:402F8000CC3F13F0010F11D0EB6923B129462046FFF72EFD05E0AB681BB129462046FFF761FF0123C4F8C03FD4F8C03FD4F8003E13F0040F2ED0D4F88C3F13F4A0630AD0C2
:402FC0002A681A432A60C4F8803FD4F8803F2B6B0BB120209847D4F88C3F13F0010F08D029462046FFF796FC0123C4F8803FD4F8803FD4F88C3F13F4007F0BD00022C4F802
:40300000882F2B6823F001032B60EA622B6B0BB10220984738BD00BF38B50D4B9A680D4B9A420FD10D46044621B940F237110A4800F074F804F11003064A52F8230042F858
:40304000235038BD1030054B53F8200038BD00BF00ED00E000400208C07108100000081048B338B504460D464368072B03D93221134800F053F8B4F900306268002B08DBE5
:403080005201D2B203F1604303F5614383F8002305E003F00F035201D2B20A49CA540A4B9A680A4B9A4208D12946B4F90000FFF7B3FF002038BD06487047002038BD00BF23
:4030C000C071081014ED00E000ED00E0004002080100560010B5044605E0084B186800F07FF8A4F50044B4F5004FF6D8044B186800FB04F000F074F810BD00BFA8420208CD
:40310000A442020808B5034B1B7800FB03F000F067F808BDA042020801BEFEE738B50D46044C18220146204601F03CFCA5610020FFF7F2FFF0480208FEE700BF08B50268B5
:40314000254BDA6142681A6282685A62C2689A620269DA6242691A6382695A63C2699A631E4A916AD963D16A1964516A5964516B9964926BDA64F1EE103A13F0900F27D08E
:40318000026A154B1A65426A5A65826A9A65C26ADA65026B1A66426B5A66826B9A66C26BDA66026C1A67426C5A67826C9A67C26CDA67026DC3F88020426DC3F88420826DCC
:4031C000C3F88820C26DC3F88C20026EC3F89020FFF7B2FF08BD00BFF048020800ED00E00230800803D001300238FCD100BF00BF7047EFF3108072B6704780F310887047B4
:4032000030B583B004460D46022808D9042806D0032804D040F6B2112848FFF77FFF6B1EDBB2012B08D9042D06D0082D04D040F6B3112248FFF772FF214800EB840044686E
:40324000042D12D0012D1AD111E0A3681D420AD1E3681A6800925B6801932368294668469847174B9C61646902E0002000E0002014B3144B9842E8D1012DE6D11CE0022DB8
:4032800001D104E01C466369002BFBD103E00C4B9C6904B1246900200CE0A3681D4208D1E3681A6800925B68019323682946684698472469002CF0D103B030BD047208107E
:4032C0006C4B0208FF00420010B5044620B940F6A1211748FFF722FF164A1368DB6803F5F2431B6823601368DA6802F5F04212686260D96847F604028A58A260D96847F61D
:4033000008028A58E260D96847F60C028A582261D96847F610028A586261D96847F614028A58A261DA6847F61803D358E36110BD047208103C4C020810B5044620B940F6AC
:40334000C9211748FFF7EAFE164B1B68DA68616802F5F0421160D968A06847F604028850D968E06847F608028850D968206947F60C028850D968606947F610028850D96832
:40338000A06947F614028850D968E06947F618028850DB68226803F5F2431A6010BD00BF047208103C4C020870B50446012804D94FF426713A48FFF7B1FE3A4B9B682BB126
:4033C00001210846FFF71CFF054600E00025002D5ED1FFF70EFF0646324B9B681BB104210120FFF70DFF304B1B6893F8432042B19B68D3F8E03013F0100F02D02B48FFF7A3
:4034000063FF4FF0B0539B899BB223B14FF0B0539B899BB201E04FF48073B3F5807F03D1204603F0A1FB1AE0214A136943F004031361012C01D030BF07E020BF194B1B7830
:4034400003B120BF0122174B1A70174B1B681A68D3F89430D35803F00303022BE4D0124B1B6893F8432042B19B68D3F8E03013F0100F02D00D48FFF75FFF3046FFF7BDFE4C
:40348000084B9B684BB108210120FFF7B9FE04E002210120FFF7B4FE064D284670BD00BF047208106C4B02083C4C0208884B020800ED00E0FF004200014B1860704700BF40
:4034C0003C4C0208002800F0AC8070B40446002A00F0A98092F828300BB1012500E00025137F0BB1022300E000231D431669B60406F4802645EA060395682D0405F44035F9
:403500001D431668300600F0E0602843136B556B43EA45031B0503F440130343906B43EA8000052E03D1D3681B029BB202E053681B029BB20343081D800123501368062B13
:4035400008D104EB81130120C3F808013F20C3F828011DE0936843B904EB81130020C3F808013120C3F8280112E0012B08D1506904EB8113C3F808011C20C3F8280107E039
:4035800004EB81130120C3F808011220C3F82801106A04EB8113C3F80C01506AC3F810015069C3F814019069C3F81801136EB3F1FF3F17D0106C00F00F00966C360206F4F3
:4035C00070663043156D2D0405F470250543906D000380B228431B01DBB2034304EB8110C0F82031D36B03F00303566C360106F030063343D56C2D0205F440752B43506DC9
:403600008001C0B21843D36D9B0003F00C03034304EB8114C4F82431D36AC4F83831002002E002487047014870BC70470100B60070B539B900240AE015F8010BFDF794FC7A
:40364000013402E016460D460024B442F4DB204670BD00BF70B561B900240FE0FDF790FCC0B2287001340A2808D00D2806D0013502E016460D460024B442EFDB204670BDE5
:4036800008B5084B1B783BB9074A05210748FFF719FF0122034B1A70044B20229A609A6108BD00BFA84B0208B47308100000384081F0004102E000BF83F0004330B54FEABF
:4036C00041044FEA430594EA050F08BF90EA020F1FBF54EA000C55EA020C7FEA645C7FEA655C00F0E2804FEA5454D4EB5555B8BF6D420CDD2C4480EA020281EA030382EAF2
:40370000000083EA010180EA020281EA0303362D88BF30BD11F0004F4FEA01314FF4801C4CEA113102D0404261EB410113F0004F4FEA03334CEA133302D0524263EB430379
:4037400094EA050F00F0A780A4F10104D5F1200E0DDB02FA0EFC22FA05F2801841F1000103FA0EF2801843FA05F359410EE0A5F120050EF1200E012A03FA0EFC28BF4CF0B7
:40378000020C43FA05F3C01851EBE37101F0004507D54FF0000EDCF1000C7EEB00006EEB0101B1F5801F1BD3B1F5001F0CD349085FEA30004FEA3C0C04F101044FEA445277
:4037C00012F5800F80F09A80BCF1004F08BF5FEA500C50F1000041EB045141EA050130BD5FEA4C0C404141EB010111F4801FA4F10104E9D191F0000F04BF01460020B1FAB4
:4038000081F308BF2033A3F10B03B3F120020CDA0C3208DD02F1140CC2F10C0201FA0CF021FA02F10CE002F11402D8BFC2F1200C01FA02F120FA0CFCDCBF41EA0C01904092
:40384000E41AA2BF01EB0451294330BD6FEA04041F3C1CDA0C340EDC04F11404C4F1200220FA04F001FA02F340EA030021FA04F345EA030130BDC4F10C04C4F1200220FA7C
:4038800002F001FA04F340EA0300294630BD21FA04F0294630BD94F0000F83F4801306BF81F480110134013D4EE77FEA645C18BF7FEA655C29D094EA050F08BF90EA020F19
:4038C00005D054EA000C04BF1946104630BD91EA030F1EBF0021002030BD5FEA545C05D14000494128BF41F0004130BD14F580043CBF01F5801130BD01F0004545F0FE4127
:4039000041F470014FF0000030BD7FEA645C1ABF194610467FEA655C1CBF0B46024650EA013406BF52EA033591EA030F41F4002130BD00BF90F0000F04BF0021704730B51A
:403940004FF4806404F132044FF000054FF0000150E700BF90F0000F04BF0021704730B54FF4806404F1320410F0004548BF40424FF000013EE700BF42004FEAE2014FEA91
:4039800031014FEA02701FBF12F07F4393F07F4F81F06051704792F0000F14BF93F07F4F704730B54FF4607401F0004521F0004120E700BF50EA010208BF704730B54FF0C9
:4039C00000050AE050EA010208BF704730B511F0004502D5404261EB41014FF4806404F132045FEA915C3FF4DCAE4FF003025FEADC0C18BF03325FEADC0C18BF033202EB1B
:403A0000DC02C2F1200300FA03FC20FA02F001FA03FE40EA0E0021FA02F11444C1E600BF70B54FF0FF0C4CF4E06C1CEA11541DBF1CEA135594EA0C0F95EA0C0F00F0DEF824
:403A40002C4481EA030621EA4C5123EA4C5350EA013518BF52EA033541F4801143F4801338D0A0FB02CE4FF00005E1FB02E506F00042E0FB03E54FF00006E1FB03569CF048
:403A8000000F18BF4EF0010EA4F1FF04B6F5007F64F5407404D25FEA4E0E6D4146EB060642EAC62141EA55514FEAC52040EA5E504FEACE2EB4F1FD0C88BFBCF5E06F1ED8A4
:403AC000BEF1004F08BF5FEA500E50F1000041EB045170BD06F0004646EA010140EA020081EA0301B4EB5C04C2BFD4EB0C0541EA045170BD41F480114FF0000E013C00F322
:403B0000AB8014F1360FDEBF002001F0004170BDC4F10004203C35DA0C341BDC04F11404C4F1200500FA05F320FA04F001FA05F240EA020001F0004221F0004110EBD370D1
:403B400021FA04F642EB06015EEA430E08BF20EAD37070BDC4F10C04C4F1200500FA04F320FA05F001FA04F240EA020001F0004110EBD37041F100015EEA430E08BF20EA59
:403B8000D37070BDC4F1200500FA05F24EEA020E20FA04F301FA05F243EA020321FA04F001F0004121FA04F220EA020000EBD3705EEA430E08BF20EAD37070BD94F0000F54
:403BC0000FD101F00046400041EB010111F4801F08BF013CF7D041EA060195F0000F18BF704703F00046520043EB030313F4801F08BF013DF7D043EA0603704794EA0C0FC6
:403C00000CEA135518BF95EA0C0F0CD050EA410618BF52EA4306D1D181EA030101F000414FF0000070BD50EA410606BF1046194652EA430619D094EA0C0F02D150EA013607
:403C400013D195EA0C0F05D152EA03361CBF104619460AD181EA030101F0004141F0FE4141F470014FF0000070BD41F0FE4141F4780170BD70B54FF0FF0C4CF4E06C1CEAA1
:403C800011541DBF1CEA135594EA0C0F95EA0C0F00F0A7F8A4EB050481EA030E52EA03354FEA013100F088804FEA03334FF0805545EA131343EA12634FEA022245EA11157C
:403CC00045EA10654FEA00260EF000419D4208BF964244F1FD0404F5407402D25B084FEA3202B61A65EB03055B084FEA32024FF480104FF4002CB6EB020E75EB030E22BF40
:403D0000B61A754640EA0C005B084FEA3202B6EB020E75EB030E22BFB61A754640EA5C005B084FEA3202B6EB020E75EB030E22BFB61A754640EA9C005B084FEA3202B6EB49
:403D4000020E75EB030E22BFB61A754640EADC0055EA060E18D04FEA051545EA16754FEA06164FEAC30343EA52734FEAC2025FEA1C1CC0D111F4801F0BD141EA00014FF0C8
:403D800000004FF0004CB6E711F4801F04BF01430020B4F1FD0C88BFBCF5E06F3FF6AFAEB5EB030C04BFB6EB020C5FEA500C50F1000041EB045170BD0EF0004E4EEA11310E
:403DC00014EB5C04C2BFD4EB0C0541EA045170BD41F480114FF0000E013C90E645EA060E8DE60CEA135594EA0C0F08BF95EA0C0F3FF43BAF94EA0C0F0AD150EA01347FF41F
:403E000034AF95EA0C0F7FF425AF104619462CE795EA0C0F06D152EA03353FF4FDAE1046194622E750EA410618BF52EA43067FF4C5AE50EA41047FF40DAF52EA43057FF40D
:403E4000EBAE12E702440346934202D003F8011BFAE770472DE9F04788B0002B149F1299109EDDF84CA01D4627F02007BBBF03F100431D4600232D231446B8BF1446462F86
:403E80000B7003D0452F03D1013601E0032300E0022307AA049206AA03928DE8480422462B4600F0E5FE472F804602D1119BDB0728D5462F08EB060911D198F80030302B22
:403EC0000AD1002200232046294602F09FFC18B9C6F10106CAF80060DAF800309944002200232046294602F091FC08B9302202E0CDF81C9006E0079B994503D9591C079162
:403F00001A70F8E7079B159AC8EB03034046136008B0BDE8F08773B503460029B8BF494203F8022BB4BF2D222B220929427019DD0DF1070216460A2591FBF5F405FB141168
:403F40003031092C02F8011D2146F5DC3031541E02F8011CB4421A460AD214F8012B03F8012BF7E730241A46214402F8024B5970101A02B070BD00002DE9F04F91B00C46E8
:403F8000DDF8688016461F46054601F089FD03680893184600F0FEFC00230E93D8F800300990073323F0070303F1080294F818A0D4F800B0C8F80020D3E90023C4E9122360
:403FC000D4E9128929F000430B93CDF828804FF0FF32A74BDDE90A0102F04AFCA0B94FF0FF32A34BDDE90A0102F024FC60B9002200234046494602F013FC10B12D2384F8FC
:4040000043309C4B9C4A0AE042464B464046494602F02EFC002800F09281984B984ABAF1470F8CBF90469846032323612BF0040323604FF000093DE0BAF1670F00F08A814C
:40404000BAF1470F00F08681236000210DF133020193636805900292009342464B460691CDF810A0CDF80CE02846FFF7F3FE0AF0DF03472B804600F08481BAF1650F0D995D
:4040800000F28D810139524604F150000D91FFF742FF0E9A8318012A8146236100F37C812268D10700F178819DF8333013B12D2384F84330009733460FAA2146284600F096
:4040C0009FF9013002D14FF0FF3096E123685A0501D4236965E0BAF1650F40F2D58000220023D4E9120102F091FB78B30123654A31462846B8470130E5D00E9B0D9A9A4282
:404100000BDB2368D80708D423689B0740F111814FF0000804F1190906E1099B089A31462846B8470130CED04FF0000804F11A090E9B013B9845E7DA01234A4631462846AA
:40414000B8470130BFD008F10108F1E70D9B002B29DC01234B4A31462846B8470130B2D00D9B23B90E9B13B92368D907CCD5099B089A31462846B8470130A4D04FF0000962
:4041800004F11A0A0D9B5B42994509DA0123524631462846B847013095D009F10109F1E70E9B4246A7E00E9AA36D9A42A8BF1A46002A914606DC4FF0000A29EAE97904F125
:4041C0001A0B11E01346314642462846B8470130F1D178E701235A4631462846B84701303FF471AF0AF1010AA36DC9EB03029245F0DB08EB03090D9A0E9B9A420FDB236855
:40420000DA070CD40E9B0D9A9844C9EB08089B1A9845A8BF9846B8F1000F08DC0FE0099B089A31462846B8470130EBD14BE743464A4631462846B84701303FF444AF4FF08F
:40424000000928EAE87804F11A0A09E00123524631462846B84701303FF435AF09F101090D9A0E9B9B1AC8EB03039945EEDB4BE7FFFFEF7F207408102474081028740810C2
:404280002C740810307408100E9A012A01DCDB0738D50123424631462846B84701303FF412AF099B089A31462846B84701303FF40AAF00220023D4E9120102F0A7FA20B176
:4042C0004FF0000804F11A0A0EE00E9B08F10102013B19E00123524631462846B84701303FF4F1AE08F101080E9B013B9845F1DB4B4604F1500231462846B84701307FF403
:4043000003AFE0E60123424631462846B8470130EED1D8E601234A4631462846B84701303FF4D1AE08F10108E3680F9A9B1A9845F0DBE0680F9B9842B8BF18465DE0626851
:40434000531C0EA84BF480630DF1340E7FF474AE062201E012B90122626075E6002106910DF133018DE80C00236005904246CDF810A0CDF80CE002914B462846FFF76AFDED
:4043800080460D9BD81C02DB626893421DDDAAF1020A5FFA8AFA70E60133236184E6BAF1660F14D10029636807DD216113B92268D2071DD501330B4419E013B92268D00700
:4043C00001D5023313E0012311E04FF0670A0D9B0E9A934205DB22682361D10708D5013305E0002BD4BFC3F102030123134423610D9BA3654FF0000956E611B0BDE8F08F8A
:404400002DE9F04791461F460A698B68DDF820809342B8BF1346C9F8003091F8432006460C4612B10133C9F800302368990642BFD9F800300233C9F80030256815F0060521
:4044400010D104F1190A07E00123524639463046C04701301AD00135E368D9F800209B1A9D42F1DB94F843302268003318BF012392060FD5E1185A1C302081F843002244A3
:4044800094F8451082F84310023303E04FF0FF30BDE8F08704F1430239463046C0470130F4D02268D9F80050E36802F00602042A08BF5D1B2269A3680CBF25EAE575002535
:4044C0009342C4BF9B1AED184FF000091A344D4509D00123224639463046C0470130D5D009F10109F3E70020BDE8F0872DE9F04317460A7E85B06E2A984606460C460C9B13
:4045000001F1430E00F0AE8011D8632A22D009D8002A00F0BB80582A40F0CA8081F84520834955E0642A1ED0692A1CD0C0E0732A00F0B08009D86F2A2ED0702A40F0B880CF
:404540000A6842F020020A603EE0752A24D0782A3AD0ADE01A6801F14205111D1960136884F84230A8E021681A6811F0800F02D0111D196008E011F0400F02F10401196011
:4045800002D0B2F9003000E01368002B3CDA2D225B4284F8432037E021681A6811F0800F02D0111D196007E011F0400F02F10401196001D0138800E01368227E5C496F2A6F
:4045C00014BF0A2208221BE078225A4984F845202268186812F0800F00F104051D6003D1550601D5038800E00368D00744BF42F0200222601BB9226822F020022260102296
:40460000002084F8430001E049490A226568A560002D08DB206820F0040020602BB9002D7DD175460CE0002B79D07546B3FBF2F002FB1033CB5C05F8013D03460028F5D160
:40464000082A0BD12368DA0708D5236962689A42DEBF302305F8013C05F1FF35C5EB0E0323612EE008681A68496910F0800F03D0101D1860136808E010F0400F02F10400B6
:404680001860136801D0198000E0196000232361754616E01A68111D1960156862680021284601F06DFA08B1401B6060636804E004F1420584F8422001232361002384F8B1
:4046C0004330CDF800803B4603AA21463046FFF797FE013002D14FF0FF3026E023692A4639463046C0470130F5D023689B0710D5002504F1190907E001234A463946304628
:40470000C0470130E7D00135E368039A9B1A9D42F2DBE068039B9842B8BF184605E00B7884F8423004F142058AE705B0BDE8F08332740810437408100FB40A4B13B51C68B5
:4047400024B1A36913B9204601F020F905AB049AA1680193204601F029FE02B0BDE8104004B070470C43020870B50E46054618B183690BB901F00AF9AB69AC6813B92846B5
:4047800001F004F9224B9C4201D16C6808E0214B9C4201D1AC6803E01F4B9C4208BFEC68A3891B0701D523693BB92146284600F061F910B14FF0FF3070BD013EA36816F845
:4047C000011F013BA36091B1002B04DAA269934206DB0A2904D023685A1C22601970EDE72246284600F0F2F80130E7D1E2E7002B08DA22460A21284600F0E8F80130D9D04D
:404800000A2070BD23680A205A1C2260187070BD6474081084740810A4740810024B01461868FFF7A1BF00BF0C4302082DE9F7431D464F4B1E6804460F46904626B1B369D2
:4048400013B9304601F0A2F84A4B9C4201D1746808E0494B9C4201D1B46803E0474B9C4208BFF468B8F1020F04D0B8F1010F79D8002D77DB2146304601F01EF8616B41B1D3
:4048800004F14403994202D0304601F0B9FC002363630023A3616360A3891B0603D52169304601F0ADFCA38923F44A6323F00303B8F1020FA3811ED001AB6A462146304653
:4048C00001F0F2F8A3891843A0810DB9009D00E02FBB284601F048F90746D0B9DDF80090A94502D14FF0FF3006E0484601F03CF9074678B9F6E70020A38943F00203A38161
:404900000023A36004F1470323602361012363612AE0A946A38943F08003A3814D46B36913B9304601F032F8B8F1010F08BFA389276004BF43F00103A381A389276103F020
:40494000080080B2656158B113F001034FF000001DBF6D42A060A561A56008BF184603E0A06001E04FF0FF3003B0BDE8F08300BF0C4302086474081084740810A4740810E8
:4049800010F8012B11F8013B012A28BF9A42F7D0D01A7047034613F8012B002AFBD1181A0138704710B5034642B111F8014B03F8014B013A002CF7D11A4400E010BD9342E4
:4049C00002D003F8014BFAE710BD0000F8B50F461446064618B183690BB900F0D7FF224B9C4201D1746808E0204B9C4201D1B46803E01F4B9C4208BFF468A369A360A38968
:404A00001A0709D523693BB123682069181A63699842FDB20FDB08E02146304600F02AF80028F1D04FF0FF30F8BD2146304600F043FF0028F6D1A368013BA36023685A1C4E
:404A400022601F706269431C934204D0A389DB0707D50A2D05D12146304600F02DFF0028E0D12846F8BD00BF6474081084740810A4740810324B70B51D6806460C4625B1DC
:404A8000AB6913B9284600F081FF2E4B9C4201D16C6808E02C4B9C4201D1AC6803E02B4B9C4208BFEC68B4F90C309AB215071DD4D00602D4092232603AE0510712D5616BF6
:404AC00041B104F14403994202D0304601F098FB00236363A38923F02403A3810023636023692360A38943F00803A38123694BB9A38903F42073B3F5007F03D021463046CE
:404B000000F0F6FFA28912F0010305D00023A36063695B42A36103E0920758BF6369A36023695BB9B4F90C3003F0800080B230B143F04003A3814FF0FF3070BD002070BD04
:404B40000C4302086474081084740810A47408102DE9F74F03690C699C42804600F38380013C01F114074FEA840E00F1140657F8245006EB0E030193013556F82430B3FBD6
:404B8000F5F507EB0E09002D39D04FF0000A3846B446D34650F8042B93B205FB03A34FEA134A9BB2C3EB0B03120CBCF800B005FB02A213FA8BF34FEA124A1FFA82FBDCF841
:404BC0000020CBEB124202EB23429BB243EA024381454FEA224B4CF8043BDBD256F80E306BB9019B043B9E421A4602D3C8F8104005E01268043B002AF8D1013CF3E7404600
:404C000001F027FA00282CDB013530464FF0000E57F8041BD0F800C08AB2C2EB0E03090C13FA8CF3C1EB1C4202EB23429BB243EA0243B9454FEA224E40F8043BE8D256F868
:404C4000242006EB840362B9043B9E421A4602D3C8F8104005E01268043B002AF8D1013CF3E7284600E0002003B0BDE8F08F00002DE9F04F456A97B08246239CCDE902235F
:404C800045B9102000F070FFCAF82400456085600560C560DAF82430196859B15A684A60012393408B60504600F0FAFFDAF8243000221A60039BA04A002BBFBF0123236055
:404CC000039B23F00043B8BF0393DDF80C80A4BF0023236028F000431B0D1B0593421DD1229A42F20F731360029B43B9934A944BC8F31300002814BF1846104600E0904874
:404D0000249B002B00F04A85C37813B100F1080300E0C31C249A136000F040BDDDE90245002200232046294601F070FD074658B1229A01231360249B002B00F0228581487A
:404D40001860013800F02ABD14AB019315AB009322462B46504601F0F7F9C8F30A56059056B1C5F3130343F07F51204641F44011A6F2FF3611971DE0159B149E1E4406F213
:404D80003243202B0ADD029A06F21240C3F1400322FA00F008FA03F3184304E0C3F12000029B03FA00F0FEF7C5FD0123A1F1F871013E11930022644BFEF77EFC58A3D3E91E
:404DC0000023FEF72DFE58A3D3E90023FEF776FC044630460D46FEF7BDFD55A3D3E90023FEF71EFE02460B4620462946FEF766FC04460D4601F052FD00228346002320466F
:404E0000294601F00DFD58B15846FEF7A3FD02460B462046294601F0F9FC08B90BF1FF3BBBF1160F0DD8494901EBCB01DDE90223D1E9000101F012FD30B10BF1FF3B0023A1
:404E400000E00123109300E01090149B9E1B731E089343BFC3F10009002308934FF00009BBF1000F07DB089BCDF834B05B4408930023099306E0CBF1000309930023CBEBB6
:404E800009090D93209B092B27D8052BC4BF043B2093209BA3F10203CCBF00250125032B20D8DFE803F0060E0204012302E0012308E000230C93219B002B1CDD069398465E
:404EC0001EE000230C93219B5B4403F1010806934346012BB8BF012312E00125002320930C9501E001230C934FF0FF33069398460022122303E00123069398461A462192AE
:404F0000DAF8244000226260042101F114029A421ED86268013262604900F6E7AFF3008061436F63A787D23FB3C8608B288AC63FFB799F501344D33F0000F07F5474081064
:404F40005D740810317408100000F83F007508106168504600F06FFEDAF8243020601B680793B8F10E0F00F25D81002D00F05A819DED027BBBF1000F8DED0E7B31DDA04AFD
:404F80000BF00F0302EBC30393ED007B4FEA2B14E2068DED0A7B0CD59A4BDDE90E01D3E90823FEF767FE04F00F04CDE90201032600E00226934D6CB1E30708D5DDE90A0175
:404FC000D5E90023FEF72CFDCDE90A01013664100835F0E7DDE90A23DDE90201FEF74AFE20E0CBF1000404B3854B864D04F00F0203EBC203D3E90023DDE90E01FEF710FDB1
:40500000CDE9020124110023022654B1E70705D5D5E90023FEF704FD0136012364100835F3E71BB1CDE9020100E00226109BEBB1DDE902450022744B2046294601F0F0FB3A
:40504000A0B1B8F1000F11D0069B002B40F3E6800BF1FF330A9300226C4B20462946FEF7DFFC0136CDE90201069F02E0CDF828B047463046FEF76EFCDDE90223FEF7D0FC76
:405080000022634BFEF71AFB0446A1F15075CFB90022604BDDE90201FEF70EFB22462B46CDE9020101F0DAFB002840F04182224605F10043DDE9020101F0B2FB002840F086
:4050C0002E82ABE00C9A4E4B791E002A4AD003EBC103D3E9002300204F49FEF7CBFD22462B46FEF7E9FA079C05460E46DDE9020101F0D4FB1290FEF72DFC02460B46DDE9BA
:405100000201FEF7D9FA129B303304F8013B2A463346CDE9020101F083FB002840F02183DDE9022300203849FEF7C6FA2A46334601F076FB002840F0D280079BE31ABB427D
:405140006CDA0022314B28463146FEF769FC002205460E462D4BDDE90201FEF761FCCDE90201C3E703EBC10122462B46D1E90001FEF756FC079BCDE91201DC191D46DDE941
:40518000020101F08BFB0646FEF7E4FB303602460B46DDE90201FEF78FFA05F8016BAC42CDE902014FF0000223D11B4BDDE91201FEF784FA02460B46DDE9020101F04EFB7C
:4051C000002840F08C80DDE9122300201249FEF773FA02460B46DDE9020101F021FBE8B114F8013C302B04F1FF3240F0BA821446F6E7064BFEF714FCCDE90201BFE700BF8A
:4052000000750810D87408100000F03F0000244000001C40000014400000E03FDDE90E34CDE90234159B002B7CDBBBF10E0F79DC8F4B03EBCB03D3E90067219B002B14DA49
:40524000B8F1000F11DC40F06C810022894B30463946FEF7E5FBDDE9022301F0F5FA45464646002840F05F8166E1079C32463B46DDE90201FEF7FEFC01F010FB0546FEF7BB
:4052800069FB32463B46FEF7CBFB0B460246DDE90201FEF711FA05F1300E04F801EB079BC3EB040EF045CDE902012ED102460B46FEF704FA8046894602460B46304639465A
:4052C00001F0AEFA78B942464B463046394601F09DFA002800F04782E90704D443E2DDF828B000E01C4614F8012C392A04F1FF3307D1079A9A42F5D1079930220BF1010BB9
:405300000A701A7801321A702DE200225A4BFEF787FB00220023CDE9020101F077FA0028A4D020E20C9A002A2DD0209A012A0ADC119A12B103F2334302E0149BC3F136036A
:40534000099D4C4615E0099B08F1FF35AB42BFBF099B0995EA1A0D9BB7BF9B185D1B0D930025B8F1000FB9BFC8EB090400234C464346089A01211A4450469944089200F023
:405380002EFD064602E0099D0C9E4C465CB1089B002B08DDA342089AA8BF2346C3EB0909E41AD31A0893099B002B1DDD0C9BABB185B131462A46504600F0ACFD059A014657
:4053C0000646504600F014FD05990746504600F067FC0597099B5A1B06D000E0099A0599504600F097FD05900121504600F0F7FC0D9B05465BB31A460146504600F08AFD4B
:40540000209B012B054618DC029B83B9039BC3F3130373B9039B23F000473F0D3F054FB1089B013309F101090893012702E0002700E0029F0D9B73B100E000272B6905EBD0
:405440008303186900F07EFCC0F1200004E0209B012BD9DD0D9F0120089B184410F01F000ED0C0F12003042B08DDC0F11C0008E000750810000014400000244006D018468A
:405480001C30089B0344814404440893B9F1000F05DD4A460599504600F08AFD0590089B002B05DD29461A46504600F081FD0546109BEBB12946059800F0CBFD002817DAB1
:4054C00000230A220599504600F001FC0C9B05900BF1FF3B002B00F05881002331460A22504600F0F4FB069B002B064637DC33E0B8F1000F2ADC209B022B27DDCDF8188056
:40550000069B83B929460522504600F0E0FB01460546059800F09DFD00280DDC03E03D4600E000252E46219B079C6FEA030B0AE0DDF828B03D463E46079B079A5C1C31237B
:4055400013700BF1010BB0460026F7E00C9BCDF8188023B9079CB1E0209B022BD0DC002C05DD31462246504600F022FD06469FB17168504600F05FFB326902320446920073
:4055800006F10C010C3000F04BFB01222146504600F00EFD804600E0B046029BDDF81C9003F00103089329460598FFF7D1FA3146044600F13007059800F04BFD4246029069
:4055C0002946504600F061FDC36802463BB901460990059800F03DFD099A034600E0012311465046099300F05BFB099B4BB9209A3AB9089A2AB9392F28D0029B002B1ADC93
:405600001BE0029A002A04DB1AD1209AC2B9089AB2B9002B11DD01220599504600F0C8FC2946059000F015FD002802DC05D1FA0703D5392F0AD004F1310709F101040CE064
:40564000002B09F101040BDD392F05D1392389F8003009F1010954E0013789F800706DE0079B069A04F8017CE31A9342A1463AD000230A220599504600F029FB46450590EA
:405680004FF000034FF00A023146504604D100F01EFB0646804686E700F019FB4146064600230A22504600F012FB80467BE700230A220599504600F00AFB059029460598F9
:4056C000FFF746FA00F1300704F8017B079B069AE31A9342EBDB079B012AACBF9B180133B0469946002601220599504600F060FC2946059000F0ADFC002802DC15D1FB07B2
:4057000013D54C4614F8013C392B04F1FF3209D1079B934204D10BF1010B3123079A02E01446EFE70133137008E04C4614F8013C302B04F1FF3201D11446F7E729465046DD
:4057400000F0AEFAB8F1000F0DD02EB1464503D03146504600F0A4FA4146504600F0A0FA01E0DDF828B00599504600F099FA0023229A23700BF101031360249B1BB11C604C
:4057800001E008480AE0079808E0069B002B3FF7E1AE209B022B7FF7DDAEB1E617B0BDE8F08F00BF307408108A892DE9F041054610070C4659D44B68002B02DC0B6C002B37
:4057C00017DDE66AAEB102F48052002392B22F682B600AB1606D15E0216A01232846B047411C0FD12B686BB11D2B01D0162B03D12F600020BDE8F081A38943F04003A3817F
:40580000BDE8F081A3895A0705D56368C01A636B0BB1236CC01A00230246E66A216A2846B047431CA38906D129681D293AD8214ACA40D60736D500226260D9042269226032
:4058400004D5421C01D12B6803B96065616B2F600029CED004F14403994202D0284600F0CFFC00206063BDE8F0810F69002FC0D093070E6808BF4B690F6018BF0023C7EB01
:4058800006088B6002E00744C0EB0808B8F1000FAFDD43463A46216AA66A2846B0470028F1DCA38943F04003A3814FF0FF30BDE8F08100BF0100402038B50B6905460C465D
:4058C000DBB118B183690BB900F060F80C4B9C4201D16C6808E00B4B9C4201D1AC6803E0094B9C4208BFEC68B4F90C302BB121462846BDE83840FFF757BF002038BD00BFB7
:405900006474081084740810A4740810014900F0A9B800BFB9580810002310B5044603604360836081814366C281036143618361194608225C30FEF785FA054B6362054BD1
:40594000A362054BE362054B2462236310BD00BF05660810276608105F6608108366081070B568234D1E5D430E4605F1740100F095FC044640B1002180E842000C30A06062
:4059800005F16802FEF75EFA204670BD836910B5044633BB8364C3640365124B124A1B688262984204BF0123836100F01FF86060204600F01BF8A060204600F017F80022CC
:4059C000E06004216068FFF7A7FF01220921A068FFF7A2FF02221221E068FFF79DFF0123A36110BD1C7408100D590810F8B51C4B1E68B369074613B93046FFF7C7FF483627
:405A0000B4687368013B04D4B4F90C507DB16834F8E733680BB13668F2E704213846FFF79FFF30600028F6D10C233B60F8BD4FF6FF73E3810123A38165662560A560656029
:405A400025616561A5610822294604F15C00FEF7F9F96563A563A564E5642046F8BD00BF1C7408102DE9F8438046894600F14804002694B1A5686768013F0CD4AB89012B75
:405A800007D9B5F90E30013303D029464046C84706436835F0E72468EBE73046BDE8F883004870471043020870B50E46B1F90E10002990B014461D4606DA00232B60B389D1
:405AC0001A060ED540230EE001AA00F001FE0028F3DB029A02F47042A2F500535A425A412A604FF480630020236010B070BD00008B8973B59E0705460C4610D401AB6A465F
:405B0000FFF7D2FF00990646284600F0C7FB68B9B4F90C309A0522D443F00203A38104F14703236023610123636118E00D4BAB62A389206043F08003A381009B6361019B92
:405B400020614BB1B4F90E10284600F0D3FD18B1A38943F00103A381A0893043A08102B070BD00BF0D590810024B0146186800F095BB00BF0C43020800000000000000001A
:405B800001F0FF01102A2BDB10F0070F08D010F8013B013A8B422DD010F0070F42B3F6D1F0B441EA012141EA014122F007047FF000070023F0E80256083C85EA010586EA3E
:405BC000010685FA47F5A3FA87F586FA47F6A5FA87F68EB9EED1F0BC01F0FF0102F0070232B110F8013B013A83EA010313B1F8D10020704701387047002D06BF3546033884
:405C0000073815F0010F07D1013015F4807F02BF013015F4C03F0130F0BC0138704700BF10B5431E0A44914204D011F8014B03F8014FF8E710BD70B5456A04460E463DB9AA
:405C40001020FFF791FF6062456085600560C560656AEB6843B1636ADB6853F8260078B1026843F8262017E021220421204600F0B9FA636AE860DB68002BECD1002070BDF8
:405C8000012101FA06F56A1D9200204600F0AAFA0028F3D04660856000230361C36070BD70B5446A06460D463CB91020FFF75CFF7062446084600460C4603DB1736A6A6805
:405CC000DB6853F82210296043F8225070BD2DE9F0410D691F4606460C4601F1140E0023DEF8000081B202FB01710F0C000C02FB007089B2013301EB00419D424FEA104773
:405D00004EF8041BECDCD7B1A3689D4212DB616830460131FFF78FFF2269023204F10C01804692000C30FFF77BFF21463046FFF7B7FF444604EB850301355F6125612046B1
:405D4000BDE8F081030C1B0413B90004102300E0002310F07F4F04BF0002083310F0704F04BF0001043310F0404F04BF80000233002803DB420003D5581C704718467047EA
:405D800020207047036813F007020BD0D90722D49A074BBF5B089B08036003604CBF01200220704799B209B91B0C102213F0FF0F04BF1B0A0832190704BF1B0904329907D2
:405DC00004BF9B080232D90702D45B0805D00132036010467047002070472020704710B50C460121FFF727FF01224461026110BD2DE9F74F14460A6923699A42B8BF0B4604
:405E00008846BCBFA0461C46D8F81070D4F81090D8F80830D8F8041007EB09069E42C8BF0131FFF708FF00F1140505EB860C2B460022634502D243F8042BFAE704F11402A1
:405E400008F1140102EB890301EB87070093009B0192934257D9B2F800B0BBF1000F23D08946AE464FF0000859F8044BBEF800A0A3B20BFB03A34FEA144ADEF8004043441E
:405E80004FEA14480BFB0A8404EB1344F2469BB243EA04434F454FEA14484AF8043B01D9D646E1E7CEF80480019BB3F802A00432BAF1000F21D02B682C4689464FF00008E3
:405EC000B9F800E0B4F802B00AFB0EBEF044A3469BB243EA08434BF8043B59F8043BB4F804E01B0C0AFB03E303EB18434F454FEA134801D95C46E3E763600435A7E75CF8B7
:405F0000043D13B9013E002EF9DC066103B0BDE8F08F00002DE9F843154612F0030206460F4607D0013A214C002354F82220FFF7CEFE0746AD1036D0746A3CB91020FFF785
:405F400013FE7062446084600460C460D6F82480D8F808404CB940F271213046FFF73FFF0023C8F80800044603604FF00008EB070AD5394622463046FFF73AFF39468146AF
:405F80003046FFF78DFE4F466D100CD0206808B10446ECE7224621463046FFF729FF2060C0F80080F4E73846BDE8F883CC7408102DE9F0470C464FEA621A26694968A36813
:405FC000564407469146751CAB4202DA01315B00FAE73846FFF72FFE0023804600F114011A46534503DA41F823200133F9E72AEAEA73206901EB830319F01F0904F114017F
:4060000001EB800E14D0C9F1200C0022086800FA09F002439A4643F8042B51F8042B8E4522FA0CF2F2D8CAF8042042B1B51C06E0043B51F8042B43F8042F8E45F9D8013D42
:406040003846C8F810502146FFF72AFE4046BDE8F08703690A699B1A10B511D192001430143183180A4453F8044D52F8041D8C4202D007D3012010BD9842F4D3002010BD1F
:40608000184610BD4FF0FF3010BD2DE9F8430C460746114620461546FFF7DBFF061E08D131463846FFF7C7FD012303614661BDE8F883BCBF23462C4638466168BABF1D462E
:4060C00001260026FFF7B7FD2B69C660266905F11409143404EB860709EB830800F114054FF0000C54F8043B59F8042B1CFA83F11FFA82FE120CCEEB0101C2EB134303EBBD
:40610000214389B24FEA234CC84541EA0343A64645F8043BE6D8BE450ED25EF8041B1CFA81F2131403EB114392B242EA03424FEA234C45F8042BEEE755F8043D0BB9013EFB
:40614000FAE70661BDE8F8832DE9F34101211C46089E099D9046FFF76EFDC4F31303C4F30A5407460CB143F480130193B8F1000F19D002A840F8088DFFF704FE009B48B178
:40618000019AC0F1200102FA01F10B43C2407B61019200E07B61019BBB61002B14BF02210121396107E001A8FFF7ECFD019B7B6101213961203034B1A4F2334404443460B3
:4061C000C0F1350009E007EB8103A0F2324030601869FFF7B7FDC0EB41102860384602B0BDE8F08138B502FB01F4214600F056F8054618B122460021FDF724FE284638BD37
:4062000038B50546002946D051F8043C0C1F002BB8BFE41800F090FA1F4A1368114613B96360146032E0A3420ED92268A018834204BF18685B68636004BF121822600C6054
:4062400024E0A24203D813465A68002AF9D118681918A1420BD12168014458188242196014D1106852685A60014419600EE002D90C232B600AE021686018824204BF106865
:406280005268626004BF091821605C602846BDE8384000F052BA38BDB04B020870B5CD1C25F0030508350C2D38BF0C25002D064601DBA94202D90C23336046E000F03CFACE
:4062C000234B1C681A462146A1B10B685B1B0ED40B2B03D90B60CC18CD501EE08C420DBF63684B686360136018BF0C4615E00C464968E9E7174C23681BB9304600F072F97A
:4063000020602946304600F06DF9431C18D0C41C24F00304A0420DD12560304600F00DFA04F10B00231D20F00700C31A0ED05A42E25070BD211A304600F054F90130EBD1C6
:406340000C233360304600F0F8F9002070BD00BFB04B0208AC4B02089368013B002B10B4936009DA9469A34202DBCBB20A2B03D15DF8044BFEF72ABB1368581C106019704B
:40638000C8B25DF8044B7047F8B506460F461446D518AC4208D03A4614F8011B3046FFF7DBFF431CF5D100E00020F8BD2DE9F04F9DB00C4617460393064618B183690BB939
:4063C000FFF7E4FA7F4B9C4201D1746808E07E4B9C4201D1B46803E07C4B9C4208BFF468A38918070CD5236953B10023099320238DF8293030238DF82A30DFF8D4B144E0FD
:4064000021463046FEF736FB0028EED04FF0FF30D5E0039A111D12680391002A80F28C80524243F002000792049098F800302E2B00F08480032298F800106548FFF7A0FBC9
:4064400048B14023CBEB000003FA00F0049B1843049008F1010898F800105E488DF82810062208F10107FFF78BFB002800F09580594B002B40F08880039B073323F00703BC
:4064800008330393099B53440993B846454615F8013B1BB9B8EB07090FD003E0252BF9D0A846F3E74B463A4621463046FFF76CFF01307FD0099B4B44099398F80030002BAF
:4064C00078D000234FF0FF3204930793059206938DF853301A930127052229783F48FFF74FFB05F10108049B38B13C4A801A07FA00F0184304904546EEE7D90644BF2022E9
:406500008DF853201A0744BF2B228DF853202A782A2A3FF47EAF079A00210A20A846013598F80030303B092B03D800FB02320121F4E700293FF479AF079276E798F80130F3
:406540002A2B0BD1039B1A1D1B680392002BB8BF4FF0FF3308F1020805936BE70023059308F1010019460A258046013098F80020303A092A03D805FB01210123F4E7002B4F
:406580003FF458AF059155E703AB00932246144B04A93046FDF7F0FC07E003AB009322460F4B04A93046FDF7A1FFB0F1FF3F82467FF468AFA3895B063FF528AF09981DB0EC
:4065C000BDE8F08F6474081084740810A4740810CE750810D2750810793F0810C87508108963081038B5064C002305460846236000F0ECF9431C02D1236803B12B6038BD20
:40660000404C020810B50C46B1F90E1000F096F80028ABBF636DA3891B1823F48053ACBF6365A38110BD2DE9F0411F468B89DB0505460C46164605D502230022B1F90E1016
:4066400000F068F8A389B4F90E1023F48053A38132463B462846BDE8F04100F017B810B50C46B1F90E1000F055F8431CA38915BF606523F4805343F48053A38118BFA38176
:4066800010BDB1F90E1000F013B8000038B5074C054608461146002222601A46FCF7C8FF431C02D1236803B12B6038BD404C020838B5064C002305460846236000F066F948
:4066C000431C02D1236803B12B6038BD404C020838B5074C0023054608461146236000F05DF9431C02D1236803B12B6038BD00BF404C020838B5064C002305460846236033
:4067000000F054F9431C02D1236803B12B6038BD404C020838B5074C054608461146002222601A4600F04AF9431C02D1236803B12B6038BD404C02087047704738B5074CF9
:40674000054608461146002222601A46FCF782FF431C02D1236803B12B6038BD404C02084FF0FF3C06E000BF4FF0010C02E000BF4FF0010C4DF804CD4FEA410C7FEA6C5C05
:406780004FEA430C18BF7FEA6C5C1BD001B050EA410C0CBF52EA430C91EA030F02BF90EA020F0020704710F1000F91EA030F58BF994208BF90422CBFD8176FEAE37040F042
:4067C000010070474FEA410C7FEA6C5C02D150EA013C07D14FEA430C7FEA6C5CD6D152EA033CD3D05DF8040B704700BF8446104662468C461946634600E000BF01B5FFF7C3
:40680000B7FF002848BF10F1000F01BD4DF808EDFFF7F4FF0CBF012000205DF808FB00BF4DF808EDFFF7EAFF34BF012000205DF808FB00BF4DF808EDFFF7E0FF94BF012078
:4068400000205DF808FB00BF4DF808EDFFF7CEFF94BF012000205DF808FB00BF4DF808EDFFF7C4FF34BF012000205DF808FB00BF4FEA410C7FEA6C5C02D150EA013C0AD11F
:406880004FEA430C7FEA6C5C02D152EA033C02D14FF0000070474FF0010070474FEA410212F5001215D211D56FF47873B3EB625212D94FEAC12343F0004343EA505311F0C0
:4068C000004F23FA02F018BF404270474FF00000704750EA013005D111F0004008BF6FF0004070474FF00000704700BF4FEA4102B2F1E04324BFB3F5001CDCF1FE5C0DD9EA
:4069000001F0004C4FEAC0024CEA5070B2F1004F40EB830008BF20F00100704711F0804F21D113F13872BCBF01F00040704741F480114FEA5252C2F11802C2F1200C10FACE
:406940000CF320FA02F018BF40F001004FEAC1234FEAD32303FA0CFC40EA0C0023FA02F34FEA4303CCE77FEA625307D150EA01331EBF4FF0FE4040F44000704701F000401F
:4069800040F0FE4040F40000704700BF024B58221A604FF0FF307047404C0208024B58221A604FF0FF307047404C0208024B58221A600020704700BF404C0208024B582293
:4069C0001A604FF0FF307047404C0208044A05491368002B08BF0B461844106018467047B44B0208484C020810B52DED028B8AB008EE100A00F04CF8234B93F90040631CDD
:406A000009D0B4EE488AF1EE10FA04D6B5EEC08AF1EE10FA03D40AB0BDEC028B10BD01231A4A009318EE100A002301920893FCF7A3FF0022CDE90401CDE902010023ACB1A5
:406A400010461946FDF716F9022CCDE906010FD100F076F821230360089B7BB9DDE90601FFF744FF0AB0BDEC028B10BDCDE90623684600F063F80028EED1E9E700F060F81D
:406A8000089B0360EAE700BF48430208DC75081020F00042B2F1FF4F70B407EE900A33D272B30028034641DBB2F5000F4FEAE05030D3A0F17F02C3F31603D10743F4000380
:406AC00048BF5B00002456105B00254619214FF08072A818984202DC1B1A8518144401394FEA43034FEA5202F3D113B104F001031C44641004F17C5404EBC65307EE903AB1
:406B000017EE900A70BC7047E7EEA77A70BC17EE900A704713F4000201D00CE00A465B001C0202F10101F9D5801AC2E737EEE77AC7EE077AE4E74FF0FF32F5E7002070471C
:406B4000014B1868704700BF0C430208F8B500BFF8BC08BC9E467047F8B500BFF8BC08BC9E4670470000000001B40248844601BC604700BF594602080C00000003000000D8
:406B80003132334134353642373839432A3023440A00000007000000435249544943414C204552524F523A204932432057726974652054696D6564204F757420284275734B
:406BC00020537475636B290D000000004C6F636B20454E47414745442E0D0A004C6F636B20444953454E47414745442E0D0A000049646C65202D20707265737320616E7923
:406C0000206B6579206F7220627574746F6E20746F2077616B652E0D0A00000053797374656D206163746976652E0D0A00000000456E7465722050494E20666F6C6C6F7700
:406C40006564206279202723273A0D0A000000000D0A50494E20656E7472792074696D656F75742E2052657475726E696E6720746F20736C6565702E0D0A000031323334A0
:406C8000000000000820080050494E20636F72726563742E0D0A000050494E20696E636F72726563742E0D0A000000004C697374656E696E6720666F72206B6E6F636B7394
:406CC0002E2E2E0D0A0000005B4B6E6F636B20315D2044657465637465642E2057616974696E6720666F72204B6E6F636B203220287E3120736563292E2E2E0D00000000B0
:406D00005B4B6E6F636B20325D2054696D696E673A20256C75206D73202D3E205041545445524E204D41544348210D0A000000005B4B6E6F636B20325D2054696D696E6755
:406D40003A20256C75206D73202D3E204641494C45442E20526573657474696E672E2E2E0D0A000054696D656F75742077616974696E6720666F72204B6E6F636B20322EC8
:406D800020526573657474696E672E2E2E0D0A004E6F206B6E6F636B2064657465637465642E20526573657474696E672E2E2E0D0A0000004552524F523A204C4953334421
:406DC00048206E6F7420666F756E642120436865636B20776972696E672E0D0A000000004C4953334448204465746563746564210D0A00003D3D3D204B6E6F636B4C6F637E
:406E00006B205265616479203D3D3D0D0A000000427574746F6E207072657373656420E28094204C4F434B494E472E0D0A000000427574746F6E207072657373656420E23C
:406E4000809420554E4C4F434B494E472E0D0A00272A27207072657373656420E28094206C6F636B696E672E0D0A000050494E2061636365707465642E20456E7465722053
:406E80006B6E6F636B207061747465726E206E6F772E0D0A000000004B6E6F636B207061747465726E20696E636F72726563742E204163636573732064656E6965642E0D84
:406EC0000A000000416363657373206772616E7465642120556E6C6F636B696E672E2E2E0D0A00000300000001000000010000000000000005036000040000000100000033
:406F000000000000010000000604600008000000204B0208590D08102F000000070000002E000000070000000200000000000000000000000000000000000000000000007E
:406F40000C0000000800000000020000000000000000000000000000000000000000000000000000000000000B0000000000000000000000000000000000000047656E6571
:406F800072617465645F536F757263655C50536F43365C70646C5C647269766572732F7065726970686572616C2F6970632F63795F6970635F6472762E68000047656E65E7
:406FC00072617465645F536F757263655C50536F43365C70646C5C647269766572735C7065726970686572616C5C6970635C63795F6970635F6472762E68000047656E6520
:4070000072617465645F536F757263655C50536F43365C70646C5C647269766572735C7065726970686572616C5C6970635C63795F6970635F6472762E63000047656E65E4
:4070400072617465645F536F757263655C50536F43365C70646C5C647269766572735C7065726970686572616C5C6970635C63795F6970635F706970652E630047656E6542
:4070800072617465645F536F757263655C50536F43365C70646C5C647269766572735C7065726970686572616C5C7363625C63795F7363625F636F6D6D6F6E2E68000000A9
:4070C00047656E6572617465645F536F757263655C50536F43365C70646C5C647269766572735C7065726970686572616C5C7363625C63795F7363625F6932632E6300007A
:4071000047656E6572617465645F536F757263655C50536F43365C70646C5C647269766572735C7065726970686572616C5C7363625C63795F7363625F6932632E68000034
:4071400047656E6572617465645F536F757263655C50536F43365C70646C5C647269766572735C7065726970686572616C5C7363625C63795F7363625F756172742E680036
:4071800047656E6572617465645F536F757263655C50536F43365C70646C5C647269766572735C7065726970686572616C5C7363625C63795F7363625F756172742E6300FB
:4071C00047656E6572617465645F536F757263655C50536F43365C70646C5C647269766572735C7065726970686572616C5C737973696E745C63795F737973696E742E63F2
:407200000000000047656E6572617465645F536F757263655C50536F43365C70646C5C647269766572735C7065726970686572616C5C737973706D5C63795F737973706D1E
